:020000040000FA
:10000000383E0020C10000001D1C000075160000D5
:10001000FFFFFFFFFFFFFFFFFFFFFFFFFFFFFFFFF0
:10002000FFFFFFFFFFFFFFFFFFFFFFFF1D1D0000A2
:10003000FFFFFFFFFFFFFFFF670100001F1D000024
:1000400003010000030100000301000003010000A0
:100050000301000003010000030100000301000090
:1000600003010000FFFFFFFF030100000301000088
:10007000030100000301000003010000FFFFFFFF78
:10008000FFFFFFFF03010000030100000301000068
:1000900003010000030100000301000035210000FE
:1000A0007D220000C51E00002D200000030100007D
:1000B0000301000003010000030100000301000030
:1000C0001048804710488047104800471048016991
:1000D000002910D1416900290DD1816900290AD177
:1000E000C169002907D1BFF34F8F0A490A48C86088
:1000F000BFF34F8FFEE77047FEE7FEE7FEE7FEE740
:10010000FEE7FEE7CD000000311D00001D010000EC
:100110000003084000ED00E00400FA0503488546AE
:1001200000F050FC00480047453E0000383E0020EB
:10013000084B19680868203080F30988022080F392
:100140001488BFF36F8F3FBCAE4608BC04BC62B6D8
:1001500018470000E8020020EFF3108072B67047E5
:1001600080F310887047EFF309800E4B1A6820382F
:100170001060F0C044464D4656465F46F0C008B594
:1001800072B604F0BFFE62B60CBC1168086810308D
:10019000F0C8A046A946B246BB4680F3098820387D
:1001A000F0C81847E802002030B50B460146002091
:1001B0002022012409E00D46D5409D4205D31D466D
:1001C0009540491B2546954040191546521E002D65
:1001D000F1DC30BDFFB585B006460698144602AD89
:1001E000022846D3002C44D00020039028468038B3
:1001F00006990027491EFF430191009023E06043C8
:10020000801961438A1901461046089A90470028D0
:1002100004DCB8002958C919295014E0686822463E
:10022000604381190098C06F6043801908E00B7823
:100230009C4603780B7063460370401C491C521E99
:10024000002AF4D17F4200986968C06F8842D6DCEA
:1002500022463046089BFFF7BDFF00980699C06F05
:100260002246091A401C60438019491E089BFFF76B
:10027000B1FF09B0F0BD10B5431A934209D28318FB
:10028000881803E0401E01785B1E1970521EF9D2D7
:1002900010BD03460B439B0703D009E008C9121F9A
:1002A00008C0042AFAD203E00B780370401C491CF2
:1002B000521EF9D210BDD2B201E00270401C491E9C
:1002C000FBD270470022F6E710B513460A460446F3
:1002D0001946FFF7F0FF204610BD30B505462A4607
:1002E0000B4610781C78521C5B1C002801D0A042E1
:1002F000F7D0002C03D0002802D06D1CEFE7284671
:1003000030BDCAB2401E4178401C8A4202D000294A
:10031000F9D100207047421C0178401C0029FBD114
:10032000801A704710B5002200E0521C835C8C5C80
:10033000A34201D1002BF8D1D8B2E1B2401A10BDCE
:1003400030B504460020034600E05B1C934203D214
:10035000E05CCD5C401BF8D030BD03460A780270EB
:10036000401C491C002AF9D118467047F0B50746D1
:100370000846584087B0C00F049048000E46590008
:1003800040084908BC1A884105D2384631461E4605
:1003900017460B4602465800400810434CD0300D1B
:1003A000039040055900400D490D0590401A0290F8
:1003B000402872DA18030121000B09050843019057
:1003C00004980092002805D00199524200208841EB
:1003D00000920190029840210A1A0199009800F0B9
:1003E000E9F905460C466B4607CB00F004FAC01944
:1003F0007141039A0E0D0023D71756401A467A40D2
:10040000164344D0049A002A2DD0029A012A039A56
:1004100015DC1205C01A914101263605001C7141F8
:10042000D20F059ED2070093019202962A462346D8
:1004300000F042FA07B0F0BD38463146FAE716053B
:10044000224A0F46B218C01AB74101210905001C03
:100450004F4100187F41114618187941E20F1043AF
:100460006D19644113E0E2076D0815436408C20783
:100470001443039A01261205C01A91413605001C47
:100480007141CE07400830434908C01851412A46FF
:10049000234600F004FACDE7FFE70498012240006C
:1004A000C117121A00238B4104983146C417381A19
:1004B000A141EEE730B40124E407634030BC55E7C6
:1004C00030B40124E407614030BC4FE70000E0FF96
:1004D000F0B51FB488B00B990998002448400999D9
:1004E000C00F490049080991C0070B9900904900C5
:1004F00049080B9109990898A64608431CD00B9906
:100500000A98084318D0099801244000420D480079
:10051000410D099824050003000B204309900B9816
:100520000003000B20430B9050181C494018002278
:1005300001901446104605E0002001460DB0F0BDC4
:10054000032801DA034600E003239C46C11A0AAEE1
:100550000AE05F0008ADED5B4F00F75B7D430027CD
:10056000AA187C41491C5B1E6145F2DD410004ABC9
:100570005A522104120C0A43240C401C0828DFDBC9
:10058000019802900099704601910090059B049A91
:100590000799069800F090F9D0E700000DFCFFFFE6
:1005A000F0B50C465C4085B0E40FE40703944C00C2
:1005B00000266408590094464908024602962243E0
:1005C00021D062460A431ED06200570D4A000E0336
:1005D0002303550D012402462C492405781B1B0BCF
:1005E000360B401823432643614600901C46501AA0
:1005F000B44103D30098401C009002E09218009888
:100600005B41002803DA0020014605B0F0BD002060
:10061000012109050746864611E064461D46141B64
:10062000B54106D36546521BB341744607430C439C
:10063000A646CD0740084908284392185B41054665
:100640000D43EAD11046184313D060461946504076
:100650007140084306D06046101AB34106D2012209
:10066000002306E000220123DB0702E00122D2433F
:100670005310009874460105381C6141029C039D8B
:100680000019694100F00BF9BFE70000FD0300000D
:100690000EB505490291002100910A460B460191D1
:1006A00000F00AF903B000BD3304000070B5CD0FAF
:1006B0004A0009030123090B1B0519430B4BED07E6
:1006C0000024520D9A4201DA002070BD074B3433EA
:1006D0009A4203DC9A1A00F07DF802E004495118AE
:1006E00088402C43F1D0404270BD0000FF03000061
:1006F000CDFBFFFFC20FD207400040080BD0C10D59
:100700000723DB01C91840020905400A1143C2084A
:10071000400711437047002001467047CB0FDB07AD
:10072000490010B5490802460A4307D00A0D0724BC
:100730000903E401090B121B002A01DC002010BD93
:10074000C900440F0C43C100E018D205801800F026
:1007500065F810BDF0B51FB40646002082B005460E
:100760004024019100901BE0019922460F4630463B
:1007700000F030F8049A059B801A994110D3104676
:100780001946224600F016F8361A8F410197224684
:1007900001200021009F00F00DF838184D41009015
:1007A0002046641E0028DFDC019B00982946324663
:1007B00007B0F0BD10B5202A04DB0146203A914075
:1007C000002010BD914020239C1A0346E3401943AA
:1007D000904010BD10B5202A04DB0846203AD040D6
:1007E000002110BD0B46D340D0402024A21A9140D6
:1007F0000843194610BD10B5202A06DBCB17084662
:10080000203A1041C1170B4306E00B461341D0407C
:100810002024A21A91400843194610BD002904DA89
:10082000401C490001D140084000704770B40024CA
:10083000050C05D11024000402D1002921D0112477
:10084000050E01D100020834050F01D10001241D5D
:10085000850F01D18000A41C002801DB4000641C2E
:10086000002908D020252E1B0D46F540A14000D0C0
:1008700001212943084301061B1B000ADB1D02D589
:10088000002070BC7047DB05181880180029F8DAC2
:10089000401C4900F5D170BC40084000704710B5BD
:1008A000002B08DA0024401C614192185B411A4376
:1008B00001D14008400010BDF0B51FB482B005461C
:1008C0000C0003D0084601F081FE02E001F07EFE3C
:1008D00020300246009021462846FFF76BFF049B1C
:1008E000059A04460F4618431143084314D018468E
:1008F00010431BD0009840210A1A18460599FFF7AB
:1009000069FF05460E46009A05990498FFF752FFC5
:10091000084305D0012004E02046394607B0F0BD69
:100920000020C11705430E432C43374300990E980E
:100930006305401A7905E40A00220C43FD0A0A30D7
:1009400002D500200146E9E70105101969410C9C18
:100950000D9D00196941FFF7A2FFDFE74A00090377
:100960000123090B1B0519430A4B10B5520D9A427E
:1009700002DA0020014610BD064B34339A4203DCF4
:100980009A1AFFF727FF10BD034BD218FFF712FF8B
:1009900010BD0000FF030000CDFBFFFF10B50029D4
:1009A00004DB0124E40740428C412146002B04DB98
:1009B0001C460123DB075242A341994200D19042D9
:1009C00010BD0000064C0125064E05E0E36807CC8B
:1009D0002B430C3C98471034B442F7D3FFF7A2FBEB
:1009E000C8550000E855000070B58C180578401C0B
:1009F0006B075B0F01D10378401C2A1106D10278E6
:100A0000401C03E006780E70401C491C5B1EF9D1A7
:100A10002B0705D40023521E0DD40B70491CFAE796
:100A20000378401CCB1A921C03E01D780D70491C02
:100A30005B1C521EF9D5A142D8D3002070BD000026
:100A400010B501F057F9074C0221204600F0F4FDE3
:100A50000121204600F0F0FD8322C021012001F099
:100A600056FD10BD00200B40F0B596460A461349CE
:100A7000C000461800230025FF2098402C46104255
:100A800016D00020012199408C461146C14067468E
:100A9000394206D087000F21B9400D437146B94055
:100AA0000C43401C0828F0D33068A8432043306032
:100AB0000833361D082BDEDDF0BD0000202002408B
:100AC00070B5184D0446686B4607760F00F02EF897
:100AD00015492060330001F090FD08140507071444
:100AE000140E1114606000E06160296A60680529D5
:100AF00009D3400908E00120C003F3E77D2000028C
:100B0000F0E70020EEE7C840A060A96A4903490F5A
:100B1000072902D0C840E06070BD0321FFF744FB05
:100B2000F9E700000080084000127A000C490868CC
:100B3000C869C20F4868400AC007C00F0ED00948F4
:100B4000002A0BD18869C00D0007000F00D11020CA
:100B50008969044A4902890F5043C8407047000020
:100B60000080084000127A001FB541090A4A890036
:100B70008A1800212E2800D10221C006C00E12685A
:100B8000032383401A40C24054186846FFF798FF79
:100B9000029804B0E04010BD38800840F0B5084F1E
:100BA0007C6AFD6A3E6B84438D439643002B02D0E2
:100BB00004430D4316437C62FD623E63F0BD0000BA
:100BC0000080084010B5044607221FA1FFF7B8FBBC
:100BD00000282BD007221EA12046FFF7B1FB0028DA
:100BE00026D007221CA12046FFF7AAFB002823D00D
:100BF00007221BA12046FFF7A3FB00281ED00722D7
:100C000019A12046FFF79CFB002819D0072218A144
:100C10002046FFF795FB002814D0072216A1204696
:100C2000FFF78EFB002806D115A002E015A000E01A
:100C300015A001F013FA10BD14A0FAE714A0F8E70C
:100C400014A0F6E714A0F4E7D3EFCEC40000000030
:100C5000CAFDD1A700000000D3A2D3EF000000001E
:100C6000BBAFD1A700000000CEEFC0ED0000000038
:100C7000D2F4C0D600000000C3C0CAF500000000D6
:100C80006D7300007977000073780000656E0000D6
:100C900068780000776C000079790000F0B59BB0AF
:100CA00004F0E8FA19905C216846FFF70BFB00247A
:100CB000179403F0B5FF002601F030FA002820D089
:100CC000002005466F4618900AE00D206843C019C1
:100CD0000D229349FFF734FB002812D06D1CEDB2B2
:100CE000A542F2D3189800280BD1072C09D20D2069
:100CF0006043C0190D228A49FFF7BDFA641CE4B2B3
:100D0000002603F099FF0A2004F02CF803F088FF76
:100D1000761CF6B2032ECFD303F08EFF04F0AAFAAE
:100D20001999401A7F498842C3D303F079FF7EA006
:100D300001F03EFA01200026189084E000200546CC
:100D40001A90B001811B7B480F1838463230199039
:100D50000BE00D206843694641180D221998FFF7F2
:100D6000EFFA00286DD06D1CEDB2A542F1D31A98B0
:100D7000002866D1384601F01BFA6FA001F018FA7E
:100D8000012017901898002825D0002018906BA0FB
:100D900001F064F96AA001F00BFA69A001F008FA09
:100DA00067A001F005FA66A001F002FA64A001F064
:100DB000FFF965A001F052F961A001F0F9F960A016
:100DC00001F0F6F95EA001F0F3F95DA001F0F0F991
:100DD0005BA001F0EDF95DA001F040F958A001F031
:100DE000E7F957A001F0E4F955A001F0E1F954A0AA
:100DF00001F0DEF952A001F0DBF93846FFF7E2FE20
:100E00004FA001F0D5F94EA001F0D2F94CA001F0AD
:100E1000CFF94BA001F0CCF949A001F0C9F94AA0E3
:100E200001F01CF946A001F0C3F945A001F0C0F99A
:100E300043A001F0BDF942A001F0BAF940A001F0D1
:100E4000B7F9761CF6B242480078864200D275E7C0
:100E50001798002802D0012814D049E03DA001F0E5
:100E6000FDF837A001F0A4F935A001F0A1F934A0F4
:100E700001F09EF932A001F09BF931A001F098F940
:100E8000302012E033A001F0E9F82DA001F090F934
:100E90002BA001F08DF92AA001F08AF928A001F019
:100EA00087F927A001F084F9312001F0C7F824A0C8
:100EB00001F07EF922A001F07BF921A001F078F980
:100EC0001FA001F075F91EA001F072F91EA001F03B
:100ED000C5F81BA001F06CF919A001F069F918A080
:100EE00001F066F916A001F063F915A001F060F9B0
:100EF00019A001F05DF91B4C1BA0214600F09EFBE0
:100F000021461EA000F09AFB22A125A000F0A4FB20
:100F100028490020087003F08FFE1BB0F0BD0000D0
:100F20007007002010270000C8B1CAA7BFCEB1BE0D
:100F3000A3BA0A00B50500200A00000038370000F7
:100F40003131313131313100393000003835000074
:100F50000400002038340000BCECB2E2BDE1CAF865
:100F60000A000000FFFF0000636F757273655F7415
:100F700061626C652E62322E62636F00636F757200
:100F800073655F7461626C652E62322E62636F32CC
:100F900000000000BCECB2E2BFCEB1BE0000000019
:100FA000636F757273655F7461626C652E62322E59
:100FB000747874000100002000B57D230246DB0038
:100FC00002E0184600F004F8521EFAD200BD0000FC
:100FD000482148430549486100208861052008618F
:100FE0000869C003FCD504200861704700E000E0F8
:100FF000F8B53D4D2878002870D029463BA001F077
:10100000ABFA284602F002F801281DD0394C60786E
:1010100026466F36012820D02146374A833128469C
:1010200002F0A6FAF31DFD3319462846324ADC3990
:101030006430009601F056FF294664312FA001F07C
:101040008BFA284664303FE0274800F0E5FE294946
:101050002BA0973101F080FA40E0617A2BA001F0DB
:101060007BFA2449244A83311F4802F081FA607ACE
:10107000612802D0622810D01EE02AA001F06CFA8C
:101080002D4B194819461C4A78396430009601F0F6
:1010900029FF154929A064310CE0274B1248643B15
:1010A0001946154A14396430009601F01BFF0E49A9
:1010B00025A0643101F050FA0B48643001F01BFAAE
:1010C000C82003F04FFE234801F015FA002006491E
:1010D00060706431087008490870287005491EA0C6
:1010E000833100F0B9FAF8BD120E002025730D0A05
:1010F00000000000260000200610002025730000DC
:1011000074656C3A25730D0A000000006B65795F09
:1011100063683A25632D2D2D2D2D2D2D2D2D2D2D53
:101120000A0000006B65795F63683D312D2D2D2D20
:101130002D2D2D0A00000000350100206C61696A28
:101140006965773A25730000716975716975773A39
:101150002573000061020020636F757273655F7410
:1011600061626C652E7765656B312E747874000052
:1011700070B50C4C0125A07A612802D0622807D0F6
:101180000CE0094801F0B7F961206072657005E074
:10119000054801F0B0F96570622060720020A0720D
:1011A00070BD000026000020FD0100208162704714
:1011B000F8B50F200123002200049903FFF7EEFC8D
:1011C000FF4C00220121204600F00CFA00220121F0
:1011D000204600F00FFA00220221204600F002FA19
:1011E00000220221204600F005FA002204212046B8
:1011F00000F0F8F900220421204600F0FBF900225B
:101200000821204600F0EEF900220821204600F0D7
:10121000F1F900222021204600F0E4F901222021EA
:10122000204600F0E7F900224021204600F0DAF9DC
:1012300000224021204600F0DDF9002280212046D6
:1012400000F0D0F900228021204600F0D3F9DD4DD6
:1012500000221021284600F0C5F90022102128465E
:1012600000F0C8F900222021284600F0BBF9002236
:101270002021284600F0BEF9A61500223146284656
:1012800000F0B0F900223146284600F0B3F96715A6
:1012900000223946284600F0A5F9002239462846A2
:1012A00000F0A8F900224021284600F09BF9002216
:1012B0004021284600F09EF900228021284600F0B7
:1012C00091F900228021284600F094F9002221158E
:1012D000BD4800F087F900222115BB4800F08AF9CB
:1012E0000022F100B84800F07DF90022F100B64874
:1012F00000F080F900223101B34800F073F90022B8
:101300003101B14800F076F900220121AF4800F028
:1013100069F900220121AD4800F06CF90022710149
:10132000A94800F05FF900227101A74800F062F9B6
:101330000022B101A44800F055F90022B101A248F1
:1013400000F058F90022F1019F4800F04BF900220B
:10135000F1019D4800F04EF900220121284600F0DD
:1013600041F900220121284600F044F9002221150C
:10137000284600F037F900222115284600F03AF9F6
:101380000022F100284600F02DF90022F100284645
:1013900000F030F900223101284600F023F9002244
:1013A0003101284600F026F900227101284600F09C
:1013B00019F900227101284600F01CF9002231467B
:1013C000204600F00FF900223146204600F012F9C5
:1013D00000223946204600F005F900223946204611
:1013E00000F008F900222115204600F0FBF8002249
:1013F0002115204600F0FEF80022F100204600F002
:10140000F1F80022F100204600F0F4F8002231014A
:10141000204600F0E7F800223101204600F0EAF80B
:1014200000227101204600F0DDF800227101204603
:1014300000F0E0F80022B101204600F0D3F80022CD
:10144000B101204600F0D6F80022F101204600F05C
:10145000C9F80022F101204600F0CCF801215A48D9
:1014600000F0EAF801221146574800F0BBF80022CC
:101470000121554800F0C6F800220221524800F030
:10148000B1F801220221504800F0B4F800220221F4
:101490004E4800F0A7F8002202214C4800F0AAF8BC
:1014A00000220421494800F09DF800220421474809
:1014B00000F0A0F800220821444800F093F8002230
:1014C0000821424800F096F8002204213E4800F02E
:1014D00089F8012204213C4800F08CF80022082100
:1014E000394800F07FF801220821374800F082F8DF
:1014F00000222021344800F075F8012220213248D2
:1015000000F078F8002220212F4800F07BF800221C
:10151000F101284600F066F80022F101284600F0AB
:1015200069F800220221284600F05CF8002202211E
:10153000284600F05FF800220421284600F052F807
:1015400000220421284600F055F8002208212846F0
:1015500000F048F800220821284600F04BF800224D
:101560004021194800F03EF800224021164800F0C2
:1015700041F800228021144800F034F80022802134
:10158000114800F037F8002231460F4800F02AF8E1
:10159000002231460C4800F02DF810212046FFF7BC
:1015A00005FE01221021204600F01CF810210648FB
:1015B000FFF7FCFD01221021034800F013F807E0BB
:1015C00000000B4000400B4000200B4000600B402F
:1015D000B1012846FFF7EAFD01229103284600F0F9
:1015E00001F8F8BD002A026801D00A4300E08A43EE
:1015F00002607047002A426801D00A4300E08A4333
:1016000042607047002A08D0012A09D082688A43C4
:101610008260C2688A43C260704782680A43F7E703
:10162000C2680A43C26082688A4382607047C069A8
:10163000084000D0012070474162704710B50A464B
:10164000014602A000F088FF10BD000025733D2573
:1016500064FFFFFF0000000010B50A46014602A02B
:1016600000F07AFF10BD000025733D22257322FF94
:10167000FFFF0000FEE70000F8B5002400F026FBA5
:1016800000250C4E012701213046FFF78FFD012177
:101690003046FFF7D1FF6006040E02213046FFF707
:1016A000C6FF002800D03C436D1CEDB2082DEAD3E4
:1016B0002046F8BD00200B4070B5044600F01AFB30
:1016C000104D01212846FFF771FD02212846FFF742
:1016D0006DFD002C10D002212846FFF7ADFF01213F
:1016E0002846FFF7A9FF01212846FFF75FFD0221E9
:1016F0002846FFF7A1FF70BD02212846FFF756FDDF
:10170000EDE7000000200B4010B500F0F3FA094CA3
:1017100002212046FFF790FF01212046FFF78CFFB2
:1017200002212046FFF742FD01212046FFF73EFD42
:1017300010BD000000200B4010B500F0DBFA094C92
:1017400001212046FFF732FD02212046FFF72EFD42
:1017500001212046FFF770FF02212046FFF76CFFB2
:1017600010BD000000200B4070B500250A2400F0D9
:10177000ADFA114E02213046FFF75EFF01213046DF
:10178000FFF75AFF01E0641EE4B202213046FFF782
:101790004EFF012809D0002C09D001213046FFF767
:1017A00005FD00F0A7FA284670BD002CEBD1FFF72D
:1017B000C3FF012070BD000000200B4070B505463E
:1017C000002400F097FA0F4E01213046FFF7EEFC9F
:1017D000E80904D002213046FFF72EFF03E0022182
:1017E0003046FFF7E3FC6806050E01213046FFF79F
:1017F00023FF01213046FFF7D9FC641C082CE7DBEE
:1018000070BD000000200B40F8B5534C60780028F4
:1018100060D052A000F0A0FE00F080FC0028FBD0B9
:101820000020844602464C48524E017812E0930153
:10183000514C012700209B1A1D192B1820339B7C2B
:10184000345CA34204D1401C0D28F6DB002F07D1E5
:10185000521CD2B2404C8A42E9D3604600283AD0AA
:1018600046A000F079FE4C48002404704B48214605
:1018700004704BA0FFF7E2FE0125AD0229464CA003
:10188000FFF7DCFE29464FA0FFF7D8FE294652A0FD
:10189000FFF7D4FE294655A0FFF7D0FE294658A0F1
:1018A000FFF7CCFE29465BA0FFF7C8FE29465EA0E5
:1018B000FFF7C4FE022161A0FFF7C0FE294663A026
:1018C000FFF7BCFE65A168A0FFF7C6FE02F0B8FBFB
:1018D00021484470F8BD314800780128C3D18A01FD
:1018E000254D0020644F521A52193B5C1354401C82
:1018F0003228FADB00201718335C2037401CBB74F9
:101900000D28F8DB5DA000F027FE0026207881017D
:10191000081A4019815D002902D05CA000F01CFE6D
:10192000761C322EF2DB5AA000F016FE002620783C
:101930008101081A401980192030817C56A000F0DE
:101940000BFE761C0D2EF2DB55A000F005FE207874
:10195000401C207087E7000024000020BDD3CAD5BA
:10196000B0F3B6A8B1EAC7A9D0C5CFA22E2E2E0AD1
:101970000000000070070020FC030020B8C3BFCEA9
:10198000B1BED2D1B4E6D4DAA3ACCEDEB7A8D6D8F5
:10199000B8B4C2BCC8EB0A000A0000200000002056
:1019A000636F757273652E612E76616C00000000A6
:1019B000636F757273652E626F6F6B312E62636F2A
:1019C00000000000636F757273652E626F6F6B327B
:1019D0002E62636F00000000636F757273652E6284
:1019E0006F6F6B332E62636F00000000636F757260
:1019F00073652E626F6F6B342E62636F00000000A0
:101A0000636F757273652E626F6F6B352E62636FD5
:101A100000000000636F757273652E626F6F6B3626
:101A20002E62636F00000000636F757273652E6233
:101A30006F6F6B372E62636F00000000636F75720B
:101A400073652E6161612E76616C0000636F757243
:101A500073652E62312E62636F000000C2BCC8EB5A
:101A6000BFCEB1BE00000000636F757273652E6259
:101A7000312E747874000000CA030020C2BCC8EB89
:101A8000BFCEB1BE2025643A2000000025630000CF
:101A900020BFA8BAC53A20002530325820000000E7
:101AA0000D0A0000F0B585B00D46064602F05CF860
:101AB000044602F059F8009002F056F8039002F044
:101AC00053F8029002F050F8019002F04DF80746EA
:101AD0003046F11702F02EF8024631A1029802F0CA
:101AE000B1F82846E91702F025F802462CA1039820
:101AF00002F0A8F82C4802F0F4F8024628A1019858
:101B000002F0A0F8294802F0ECF8024624A1384679
:101B100002F098F826A1029A009802F093F827A103
:101B2000039A009802F08EF827A1019A009802F01B
:101B300089F83A4625A1009802F084F824A002F022
:101B4000D0F8024623A1204602F07CF822A002F041
:101B5000C8F8024621A1204602F074F821A12046CF
:101B6000009A02F06FF8FF212131204601F0C0FFFA
:101B70000546200007D04268511C04D0521E426026
:101B800001D101F075FF294618A000F0E5FC2846B8
:101B900000F0B1FC284601F023FD002005B0F0BDA7
:101BA00076616C7565000000AE0D0020A900002074
:101BB00048756D69646974790000000074656D7022
:101BC00065726174757265004750530064617900F5
:101BD0003132330069640000312E30007665727353
:101BE000696F6E00706172616D73000025730D0A7C
:101BF0000000000010B5012189030248FFF71CFD19
:101C000010BD000000400B4010B5012189030248BF
:101C1000FFF7CCFA10BD000000400B40FEE70000CB
:101C2000F8B5002406460094FFF76EFD9020FFF7FC
:101C3000C5FDFFF799FD1F4D012809D03046FFF77C
:101C4000BDFDFFF791FD012802D0641C142C01DDBD
:101C50002846F8BDFFF758FD9120FFF7AFFDFFF7CD
:101C600083FD0128F1D0FFF707FD694608700020C9
:101C7000FFF722FDFFF700FD694648700120FFF7DE
:101C80001BFDFFF759FD69460888012140BAC903C9
:101C9000884206D90849081AFEF7FAFC074A084B99
:101CA00003E0FEF7F5FC074A074BFEF711FCFEF7D1
:101CB00035FDF8BD000080BFFFFF0000FCA9F1D298
:101CC0004D62203FFA7E6ABC7493283F10B5084CE1
:101CD000002202212046FFF785FC01220221204636
:101CE000FFF788FC002202212046FFF78BFC10BD85
:101CF00000200B4010B5084C02212046FFF79CFC49
:101D0000012202212046FFF76DFC0022022120461D
:101D1000FFF778FC10BD000000200B40704710B5A5
:101D200003F098FA012801D003F03AF910BD000041
:101D3000F0B534491020C8603349012008603348A9
:101D4000016B40242143016331498A68272AFCD171
:101D5000416A032292029143416241680122D20208
:101D6000114341608168C908C907FBD04168C908AF
:101D7000C900C91C4160416B4907490F0329FAD1C9
:101D8000244B1968C908C900491C1960002505625F
:101D900041685E15B143416001689F153943016098
:101DA00041681A151143416081688908C907FBD051
:101DB000016BA14301630168B94301600321090676
:101DC000816141683143416081684908C907FBD09E
:101DD0001968C908C900891C196005624168C908E9
:101DE000C900491C4160416B4907490F0129FAD1DB
:101DF0001868102108431860186809020843186021
:101E0000F0BD0000008108400083084000800840C9
:101E100000A106400002084070B500210B460A46AA
:101E20000D460A4E0DE02B2C02D0012D01D007E00B
:101E300001250B2B04D044186478B454521C5B1C4D
:101E4000491C445C7D2CEED170BD0000BD0000201B
:101E50003EB5002411212246890201231046FEF7D7
:101E60009DFE062204210120FEF7FEFD0622082128
:101E70000120FEF7F9FDE12040020090FF20013033
:101E800069468880CC800C814C810C4C204600F047
:101E9000CFFA01221146204600F023FB0122002147
:101EA000204600F01EFB01221146204600F002FBF6
:101EB00003496003086000F069F83EBD001000406F
:101EC00000E100E0F8B5244F2021384600F0AAFADE
:101ED000012840D1384600F0F5FAC4B201201F4D68
:101EE0000D2C06D06B2C10D0312C10D0702C10D0B3
:101EF00013E00026AE706E71AE712870EE7018A0FF
:101F000000F02AFB2E722E7107E0E87005E0A87041
:101F100003E0A978012900D12871E879002807D1C8
:101F20002879012804D11049287A0C54401C2872C1
:101F3000687900280BD1A878012808D1E878012811
:101F400005D10949A87964390C54401CA871202195
:101F5000384600F063FAF8BD00100040260000206B
:101F60006161616161000000120E002010B5064C35
:101F70000146204600F0A9FA8021204600F052FADE
:101F80000028F9D010BD00000010004005490020D5
:101F9000488008808880FF31093148800880888027
:101FA00070470000900A00203EB50024092101205E
:101FB000C902400401232246FEF7F0FD0022202141
:101FC0001748FFF71FFB062210210120FEF74CFDEA
:101FD000062220210120FEF747FD4B20C001009082
:101FE000FF20013069468880CC800C814C810D4CEB
:101FF000204600F01DFA01221146204600F071FA39
:1020000001220021204600F06CFA012211462046F0
:1020100000F050FA0449A003086000F02BF83EBD20
:1020200000200B400010044000E100E010B520212A
:10203000014800F0F7F910BD0010044010B5064C3F
:102040000146204600F041FA8021204600F0EAF9DE
:102050000028F9D010BD00000010044010B50400A5
:1020600006D002E0FFF7EAFF641C20780028F9D1CF
:1020700010BD000005490020488008808880FF319D
:10208000093148800880888070470000A00C00203B
:102090003EB50024FF2541212246013509020123D6
:1020A0001046FEF77BFD062204210020FEF7DCFC33
:1020B000062208210020FEF7D7FC4B20C00100902B
:1020C00068468580C48004814481AC056946204609
:1020D00000F0AEF901221146204600F002FA01227A
:1020E0000021204600F0FDF920220121204600F0C9
:1020F000EEF920220021204600F0E9F90122691CB6
:10210000204600F0D7F9A82161610349E011086079
:1021100000F05EF83EBD000000E100E00448C17838
:10212000012901D0002070470021C17001207047B3
:102130000700002010B501218C07204600F072F93D
:10214000012812D1204600F0BDF9104A0123137076
:1021500051780024C0B2002908D001290BD00229EF
:1021600003D1032801D15470D37010BD0228FCD1D3
:102170005370947010BD064B91785854491CC8B2E6
:1021800090700B28F6D30220507010BD070000207D
:102190007007002010B501240146A407204600F076
:1021A00094F98021204600F03DF90028F9D010BDB7
:1021B00070B506000AD0FEF7AEF80546002403E02D
:1021C000305DFFF7E7FF641CAC42F9D370BD00003F
:1021D00005490020488008808880FF310931488007
:1021E0000880888070470000800800203EB50024E9
:1021F00021212246490201231046FEF7CFFC062288
:1022000010210020FEF730FC062220210020FEF7DE
:102210002BFC4B20C0010090FF20013069468880D4
:10222000CC800C814C81134C204600F001F9012236
:102230001146204600F055F901220021204600F009
:1022400050F920220121204600F041F920220021EE
:10225000204600F03CF9FF2101220231204600F027
:1022600029F9A82161610449A001086000F0CAF8B9
:102270003EBD00000000044000E100E0F8B5444C21
:102280000121204600F0CEF8012824D1204600F09C
:1022900019F9C4B23F48332C02D0442C02D003E0D9
:1022A000612100E062210170FEF762FF3A4D0127D3
:1022B000A878002600280FD001281ED002280AD1B5
:1022C0003649282C2ED0182C57D0E878632802D213
:1022D0000C54401CE870F8BD812C0AD0822CFAD135
:1022E0000220A870FF212E71BA312D48FDF7EAFFB8
:1022F000F8BDAF702F706E71F8BD284968796431F0
:10230000FF2C05D03128F7D20C54401C6871F8BD61
:102310000E54244821490770AE70643122A000F0A9
:102320001BF9F8BDE8781D4F00240E549637A00124
:10233000001BC1191948FDF7F5FF002805D0641CE2
:10234000E4B2072CF3D3EE70F8BDA001001BC41952
:102350002879134F8101081AC0192146FDF7FDFFA6
:10236000287921468201101AC01932313230FDF726
:10237000F4FF2879401C2871E5E7AE7010A000F04A
:10238000EBF801F0E9FD12A000F0E6F86F70F8BD7F
:102390000000044030000020000000206603002000
:1023A000B505002025000020D2D1BDD3CAD5CDEA85
:1023B000D5FBBFCEB1BEC3FBA3BA25730A00000094
:1023C000B7A2CBCDBFCEB1EDBDE1CAF80A00000087
:1023D000B4F2D3A1B5B1C8D5BFCEB1EDBDE1CAF855
:1023E0000A00000010B5064C0146204600F06DF8CA
:1023F0008021204600F016F80028F9D010BD00001A
:102400000000044004490020C880888008810C3105
:10241000C8808880088170475003002002690A4004
:10242000026170470069084000D001207047000039
:1024300070B504460D46C8888988626808432989B2
:10244000184B1A4011430843698908436060012012
:102450008007844206D11820FEF786FB2968FDF725
:10246000A3FE60621048844206D11A20FEF77CFB6E
:102470002968FDF799FE60620C48844206D11C2051
:10248000FEF772FB2968FDF78FFE60620848844200
:1024900006D11E20FEF768FB2968FDF785FE606205
:1024A00070BD0000FCE0FFFF000004400010004091
:1024B00000100440002AC26801D00A4300E08A43A9
:1024C000C2607047006880B270470160704710B505
:1024D0008368490030248C40A3438A4013438360BF
:1024E00010BD10238B404168002A01D0194300E041
:1024F00099434160704770B50546002403E0FFF73B
:1025000035FD641CE4B2285D0028F8D170BD70B5BB
:1025100014460D460646FFF7F7F89020FFF74EF9F0
:10252000FFF722F9012813D03046FFF747F9FFF7EC
:102530001BF901280DD02846FFF740F9FFF714F9E1
:102540002046FFF73BF9FFF70FF9FFF7F5F80020FA
:1025500070BD022070BD00000FB410B503A9044B7C
:10256000044A029800F012F910BC08BC04B01847E5
:10257000BD350000100000200FB41CB50A46521EE5
:102580000192009007A9064B6A46069800F0FEF8F3
:10259000009A002111701CBC08BC04B01847000050
:1025A000C52E00000FB410B504A9074B02AA03986A
:1025B00000F0ECF8044602A9002000F08EFC204652
:1025C00010BC08BC04B01847DB2E00002021020C10
:1025D00001D010211046020A01D010460839020924
:1025E00001D01046091F820801D01046891E4208FA
:1025F00001D0881E7047081A704730B47446641EB4
:102600002578641CAB4200D21D46635D5B00E31875
:1026100030BC184702E008C8121F08C1002AFAD1CE
:1026200070477047002001E001C1121F002AFBD152
:1026300070470000F0B51FB484B007980699020DEA
:10264000014314D04A484B491018484305140F98C9
:1026500001280E981CD0281A401C0024464E4749D9
:10266000009401910290002814DA474227E00F9865
:10267000012443A3012808D0002104980F9A846004
:102680000360C260416009B0F0BD0E98C143F4E739
:102690004042E2E7074612E0F80707D022463346F9
:1026A00001990098FDF714FF0191009022463346EE
:1026B00010461946FDF70CFF04460E467F10002F0A
:1026C000EAD10298019B0028009A0799069802DA3D
:1026D000FDF7FEFE01E0FDF763FF04460E46002213
:1026E000284BFEF75BF903D80020C043014607E002
:1026F0000022254B20463146FDF738FEFEF72EF925
:10270000102409E0002C0ADB0A220023FEF722F83D
:10271000059B30321A55641E02460A43F2D111223B
:10272000641C059B121B1C190F9B012B03D001235A
:1027300008430ED10AE0084304D011200E90002077
:102740000F9084E70E98151A6D1E0BE00E988242CA
:1027500002DD00236D1C03E0824201DA00236D1EBE
:10276000002BEED004980F998260C16030C08AE7D8
:1027700001FCFFFF104D0000000024400000F03F6E
:10278000300000000000F0430000E03FFFB597B0CC
:102790000646002518E2252877D100242746FD4962
:1027A000049400E00443761C32780120203A9040E3
:1027B0000842F7D130782A280ED00222307801461C
:1027C0003039092916D804990A2359433039401859
:1027D0001443761C0490F1E7189802C804911890ED
:1027E000002904DA012040030443484204900220F7
:1027F0000443761C30782E2814D1042004437078CA
:10280000761C2A2809D11898761C80C8189009E0EF
:102810000A214F43303FC719761C307801463039C2
:102820000929F5D930786C2810D006DC4C281AD04C
:1028300068280ED06A2817D104E0742813D07A28AB
:1028400012D110E00120400504430CE001210905EC
:1028500001E0032109050C437178814203D1012075
:1028600000052418761C761C3078119066280BD051
:1028700013DC58287DD009DC00287BD04528F6D011
:102880004628F4D047281AD1A5E118E0632835D0AE
:10289000642870D0652812D19DE170286CD008DCC6
:1028A0006728F1D069287BD06E280DD06F2806D11B
:1028B000BAE073282ED0752871D0782859D01A9A8A
:1028C000199990476D1C7EE16002400F022809D0E3
:1028D00003280DD00428189801680DD00D60001D44
:1028E000189070E11898EA1701680D604A60F6E7E1
:1028F000189801680D80F2E70D70F0E718986A46A5
:1029000001781172001D18900020507202A80090EA
:10291000012005E0189802C8189000200091C043DB
:1029200061070DD5002101E00199491C0191B942CF
:1029300012DA8142F8DB009A515C0029F4D10BE0F5
:10294000002101E00199491C01918142FADB019AC1
:102950000099895C0029F5D1019904981A9B471ABE
:1029600021463846199A00F097FA019940194518FE
:102970000BE04FE02CE113E04EE000980099007866
:10298000491C00911A9A199990470198401E01908C
:10299000401CF2D1214638461A9B199A10E137E0C3
:1029A0000A200021009001916002410F022907D006
:1029B000189A01CA1892C2179446032908D00AE04F
:1029C0001898C01DC108C90005C91891944607E0B0
:1029D00000B2C2179446042902D140B2C1178C46F6
:1029E00000226146944506DA0A46002140429141A0
:1029F0008C462D2102E0210504D52B216A46117356
:102A0000012103E0E10701D02021F7E7029155E021
:102A10000A200AE0102008E0102000900021042085
:102A200004430191082703E0082000210191009050
:102A30006002410F022907D0189A01CA1892002299
:102A40009446032908D008E01898C01DC108C900A1
:102A500005C91891944603E080B2042900D1C0B2A0
:102A600000210291210729D51199702906D0009AD9
:102A70001021019B4A401A4305D00EE040216A46CE
:102A80001173012108E06146014306D030216A46F6
:102A900011731199517302210291009A0821019B2F
:102AA0004A401A430AD16146014301D1610705D565
:102AB00030216A46117301217F1E02911199582914
:102AC00004D035A10E910DA90D910DE037A1F9E7C4
:102AD0006146019B009AFDF73DFE0E9B8C469B5C78
:102AE0000D9A521E0D92137061460143F0D10D985C
:102AF00005A9081A20300190600703D501200004C1
:102B0000844300E001270198874201DD381A00E084
:102B10000020019900904118029809180498401A61
:102B20000490E00306D421461A9B199A049800F0F9
:102B3000B3F94519002706E003A81A9AC05D199950
:102B400090476D1C7F1C02988742F5DBE0030CD593
:102B500021461A9B199A049800F09EF9451904E041
:102B60001A9A3020199990476D1C0099481E0090C0
:102B70000029F5DC08E00D980D990078491C0D91AD
:102B80001A9A199990476D1C0199481E01900029C5
:102B9000F1DC63E109280100303132333435363756
:102BA0003839616263646566000000003031323399
:102BB0003435363738394142434445460000000039
:102BC00000F05AF94519761C3078002800D0E2E56B
:102BD00028461BB0F0BD600700D406271898C01D1A
:102BE000C108C90048680A680831C30FDB0718919B
:102BF000190001D09CA108E0210501D59BA104E0AA
:102C0000E10701D09AA100E09AA1430011985B0866
:102C1000109165280CD006DC452809D046281DD027
:102C2000472841D141E0662818D067283CD13CE0D4
:102C30000021112F01DB112000E0781C0191009090
:102C400008A911A8FFF7F6FC139905910021119A24
:102C500015927F1C12980197009150E00120C00747
:102C600003900120019008A9009711A8FFF7E2FC4A
:102C7000139A149905920022119B009212981593B1
:102C8000059A0192002901D0104602E0791C4018F3
:102C90000190381A01D5019804E04042401E00908E
:102CA000781C0190C01B029043E0012F00DA01273D
:102CB0000021112F01DD112000E038460191009024
:102CC00008A911A8FFF7B6FC13990591119A0021E4
:102CD000129815920091019721070CD40599B942D9
:102CE00001DB019900E00191012904DD159A491EDB
:102CF000515C302906D0B84201DA011D05DA012104
:102D0000029115E00199491EEDE7002805DC0099C4
:102D1000411800910199091A03E0019A411C91425E
:102D200000DD01910099401A401C02900120C0076B
:102D30000390200706D402990198814202DB00200B
:102D4000C043029000206946C87707AF012103986D
:102D50000337C907884224D0022011902B201290FB
:102D6000039800280CDA404203902D20129007E0CF
:102D70000A210398FDF718FA30317F1E039039704D
:102D80001199481E11900029F2DC03980028EFD118
:102D9000791E129808703078202108404530BF1EF7
:102DA000387006A8C01BC01D03901098007800283A
:102DB00000D00120019941180298C0170918039802
:102DC00009180498401A401E0490E00306D42146D6
:102DD0001A9B199A049800F05FF84519109800782A
:102DE000002803D01A9A199990476D1CE00324D546
:102DF00021461A9B199A049800F04EF845191CE0D8
:102E00000098002807DB00990598884203DD159893
:102E1000405C199901E0199930201A9A904700985E
:102E20006D1C401C00900298401E0290002804D1A6
:102E30001A9A2E20199990476D1C0199481E0190ED
:102E40000029DDDC05E038781A9A7F1C1999904733
:102E50006D1C0399481E03900029F4DC21461A9B3F
:102E6000199A0498ACE600002D0000002B00000029
:102E70002000000000000000F8B5044600251E46B2
:102E80001746880404D405E039462020B0476D1C5D
:102E9000641EF9D52846F8BDFFB50446002581B06B
:102EA0001E46C80301D5302700E02027880404D53A
:102EB00005E038460399B0476D1C641EF9D52846D5
:102EC00005B0F0BD4A68002A06D00A68531C0B60A2
:102ED00010704868401E486070470A68531C0B60B9
:102EE00010707047F0B500269E4694460A46354657
:102EF00034463746059B01E08155761C995D0029D3
:102F0000FAD103E0515D7319C1546D1C0B2DF9D139
:102F10002C21817602E00219D176641C7146095D8C
:102F20000029F8D103E0E2191218D1767F1C61461E
:102F3000C95D2D29F7D1F119491909190D2209186F
:102F40004A700A228A70721912190021D2191018B7
:102F5000C170F0BD10B50020FEF762FEFDF7CAFBA0
:102F6000174A184BFDF7A6FA174A184BFDF718FB3E
:102F70000022174BFDF7ACFAFDF798FB01466428D9
:102F800004DD642113A0FEF759FB0CE0002904DAEC
:102F9000002110A0FEF752FB10BD0EA0FEF74EFB65
:102FA00010A0FFF705F90FA0FFF702F90DA0FFF73A
:102FB000FFF80CA0FFF7FCF80AA0FFF7F9F810BD26
:102FC0009A9999999999114048E17A14AE47F13F3D
:102FD00000005940696E6465782E6E302E76616C03
:102FE0000000000031313131313131313131313195
:102FF0000A0000000A680C30824204D1486882420C
:1030000001D10120704700207047000010B503A1D6
:10301000FDF763F9002800D0012010BD32322B00EB
:10302000FFB59DB01D98269D1C460E4600287DD0FC
:10303000007801210300FFF7E0FA089841321121DE
:10304000090D05792A460421C9A08EE12A460421EA
:10305000C9A08AE12A460521C9A086E11D9800F091
:1030600077FD01910090C8A2642102A8FFF784FABD
:10307000014664285AD22A4602A876E11D9800F03B
:1030800024FE3204D20E009202460B46642101A8AF
:1030900000F056FE010049D42A4601A865E11D98BA
:1030A00000F02BFE07461D9800F030FE2B4622460E
:1030B0003946009600F0AEF921B0F0BD1D9F786949
:1030C000002842D179611D9800F0B1FC02902A4697
:1030D0000121AFA0A047002837D1029800280AD0CC
:1030E0001F992346002200953046491C00F062F9E2
:1030F00000282AD134E0002078612A460121A5A0C9
:1031000033E101461D9800F084FC1F9A2346009588
:103110003146521CFFF784FF002816D1029801990E
:10312000401E814214DA2A46012100E014E19AA0EF
:10313000A047002809D11F99234601220095304657
:10314000491C00F037F9002808D00020786103E11D
:1031500023460022009530461F99F2E70198401C53
:10316000029901908842CCDBC5E7B00603D58BA05D
:103170000390012002E08AA00390022005901D9890
:103180000890006A00287DD1089801621D9800F01F
:103190001FFD06902A46012182A0A0470028F2D1F7
:1031A000069800286FD01F992346002200953046CC
:1031B000491C00F0FFF80028E5D1F005800F75D01C
:1031C0001D9800F079FD0290C00000F011FE019002
:1031D000002857D00027069800F0ABFB0146F80006
:1031E000019A00901150069800F0FEFC0146019AE9
:1031F00000988018416006991D9800F0FBFC7F1C28
:1032000006900028E7D10298874228D1300601D5E0
:10321000654B00E0654B082202990198FCF7DAFF44
:1032200000274BE00198F900081840680690014615
:103230001D9800F0BFFC0990002810D00698FDF7FB
:103240006AF801462B4622460096069800F0E2F8FE
:103250002A4605990398A047002823D101E0C046DB
:10326000C0461F9A234600953146521C0998FFF725
:10327000D7FE002816D10298401E874217D22A4650
:10328000012101E065E06AE043A0A047002809D1E0
:103290001F992346012200953046491C00F08AF808
:1032A00000280AD0019800F09BFD52E039E0234647
:1032B0000022009530461F99F0E77F1C0298874254
:1032C000B0D3019800F08CFD49E0069800F0A0FC16
:1032D0001F9A234600953146521CFFF7A1FE002895
:1032E00037D10498002810D02A4601212AA0A047EF
:1032F00000282ED11F992346012200953046491CF3
:1033000000F058F8002824D109E023460022009557
:1033100030461F9900F04EF800281AD11FE004989B
:10332000069006991D9800F065FC0490069800F040
:103330005BFC0746FCF7EFFF01462B46224638466A
:10334000009600F067F82A4605990398A0470028E0
:10335000BBD00899002008620020C043ACE6089961
:10336000002008622A46012111A0A047A4E600001F
:103370006E756C6C000000007472756500000000D2
:1033800066616C7365000000256C6C6400000000D1
:103390005B0000005D0000002C0000003A0000000F
:1033A0003A2000007B000000313F00003D3F00005C
:1033B0007D000000F8B50E461C46C10618D0C006B8
:1033C000C00E0090012110A0069AA0470027FF43DD
:1033D000002807D1002508E00C48069A0099A0476C
:1033E000002801D03846F8BD6D1CB542F4DB08E07A
:1033F000002A06D0800604D4012105A0069A984729
:10340000F8BD0020F8BD00000A000000A45500002F
:1034100020000000FFB589B00F4606460B9B012136
:1034200040A00C9A9847002875D135463446F719C4
:1034300018E0791B02AA284601F07DFB04006AD03F
:1034400002985C2810D022280ED020280CDB12997C
:10345000490501D52F2807D01299490601D57F28A3
:1034600002DC2546BC42E4D3B54206D00B9BA91B27
:1034700030460C9A984700284DD1AC4206D10B9BA0
:10348000012128A00C9A98470DB0F0BD029A0221A4
:103490000D2A23D008DC082A1AD0092A20D00A2AAB
:1034A0001AD00C2A06D115E0222A0FD02F2A19D0C3
:1034B0005C2A09D001200004824215DA1AA105A86D
:1034C000FFF770F8062120E019A01FE019A01DE009
:1034D00019A01BE019A019E019A017E019A015E028
:1034E00019A013E019A011E0101A01031B22890D85
:1034F000D2028A18029080053721800D8902431874
:1035000013A105A8FFF74EF80C2105A80B9B0C9AF8
:103510009847002802D00020C043B5E725462E4634
:10352000A0E70000220000005C7525303458000040
:103530005C5C00005C2200005C6200005C660000D5
:103540005C6E00005C7200005C7400005C2F000088
:103550005C75253034585C75253034580000000007
:1035600013460A4610B50146184601F059F910BD38
:10357000F0B5002396468C461D461F461E461C4647
:1035800018E02D2900D16D1C022D02D0012D08D08C
:103590000FE0032C0DD1C118497872469155761C65
:1035A00007E0032C05D0C1184A786146CA55641C4F
:1035B0007F1C5B1CC15C7D29E3D1F0BD70B5074D5C
:1035C0000446C1B22846FEF780FF80212846FEF758
:1035D00029FF0028F9D0204670BD000000000440FB
:1035E00010B5002823D0124B0022001F196803E0F9
:1035F000814203D80A4649680029F9D1002A0AD035
:103600001368841A9C4204D1006818181060104690
:1036100002E0506000E01860002907D002680B1A31
:10362000934203D10B68D21802604968416010BD13
:10363000480300201CB50649012001910090002399
:10364000802204A1064801F0DBFD01F027FC1CBD2F
:103650001400002073746172745F7461736B0000F6
:10366000A947000070B5044688184E4A80180246E3
:10367000154646E023785B1965782D02EB18A5788E
:103680002D04EB18E5782D06EE1823799A18637946
:103690001B029A18A3791B049A18E3791B069B183E
:1036A000227A1018627A12021018A27A12041018E4
:1036B000E27A12061518701B1C262A46F241424077
:1036C0001046ED181B1A1A26F2415A4013464019AB
:1036D000ED1A1826F2416A4015461B18401B1026A9
:1036E000F2414240EE1810461B1A0D25EA415340A4
:1036F0008519F21A18461C26F04150405A190C3907
:103700000C340C29B6D80B00FEF777FF0D4A27249E
:10371000211E1C191613110E0B082900E17A090647
:103720000818A17A09040818617A09020818217A90
:103730000818E17909068A18A17909048A186179BB
:1037400009028A1821798A18E17809064D19A178A9
:1037500009044D19617809024D1921784D19122378
:103760001146D9415040411A152308464D40D841D1
:10377000281A07240346E3414240D21A1024134674
:10378000E3415140C91A1C240B464840E341C01A8A
:1037900042401223D841101A41400822D041081A51
:1037A00070BD0000EFBEADDE10B5044600F004F8B9
:1037B000606800F015FB10BD70B505460C35046956
:1037C00008E06668A068241F00F046F9204600F073
:1037D00007FB3446AC42F4D170BDF8B504464068EE
:1037E00000F0FEFAA1680126491C30468840A1601D
:1037F0000090C00000F0FCFA6060002803D00020B8
:1038000025460C3509E00020C043F8BDC1006268C0
:103810000B1DD5506268401C5550227A31469140AC
:103820008142F3D822696D602D600DE0171F566844
:1038300038680099FCF7B8FC6068C90041183A1D67
:10384000204600F0D1F83246AA42EFD10020F8BD60
:10385000FFB581B01F460E46FFF7CCFB002813D101
:103860003468251F2868B84206D1284614300399C9
:10387000FCF758FD002804D07068A04204D06468AA
:10388000EFE7284605B0F0BD0020FBE770B5044621
:103890000D460846FCF73FFD0B490A6801462846DD
:1038A000FFF7E0FE237A01219940491E014062683A
:1038B000C900511803462A462046FFF7C9FF0028D1
:1038C00000D0C06870BD00004403002070B50446FD
:1038D000002020600320A060402000F089FA606092
:1038E000002806D020460C30206100210123E06032
:1038F00009E00020C04370BDCA006568161DA851CC
:103900006568491CA850257A1A46AA408A42F3D80D
:10391000002070BD00B501460C3100F003F800BD79
:1039200010307047024648680C32904200D10020A7
:103930007047C0687047806870470000FFB5054653
:10394000027A012401682046904081B01F468142DE
:1039500004D32846FFF741FF002840D10298FCF726
:10396000DAFC20490A6801460298FFF77BFE06460A
:10397000287A33468440641E34406868E100401869
:10398000009001462846029AFFF762FF040004D027
:10399000E06800F061F8E7601EE00298FCF7BBFC0D
:1039A0001521C8421BD2153000F022FA040016D0AF
:1039B000266003982061204614300299FCF7CDFC64
:1039C000201DA060E7606060221D2846009900F07D
:1039D0000BF82868401C2860002005B0F0BD0020CE
:1039E000C043FAE74403002070B515460C4606466E
:1039F000FFF700FB002806D0304629460C3000F0C7
:103A00001AFA656003E02946206800F014FA256080
:103A100070BD002805D00278012A02D1C2688A420E
:103A200001D800207047006989004058704700287D
:103A300002D00178012901D000207047C06870478A
:103A400010B5002807D041684A1C04D0491E4160C7
:103A500001D100F00DF810BD10B5002807D0416865
:103A60004A1C04D0491E416001D100F001F810BD8C
:103A700070B500280AD00178002908D001290BD0A0
:103A800002291AD0032915D0042913D070BD044689
:103A90000830FFF789FE0CE00446002504E0A90089
:103AA0004058FFF7CDFF6D1CE068A8422069F6D8AA
:103AB00005E0204600F094F970BD0446806800F0EF
:103AC0008FF9F6E738B51C469B0509D4002804D0C9
:103AD0000378012B04D0002B02D00020C04338BD56
:103AE0000B46009200222146FFF79AFA38BD0000EB
:103AF0003EB505460C46684600F0D6FE002801D0CB
:103B000000203EBD23466A4609492846FFF7DAFFF2
:103B1000002801D0002405E0684600F0D6FE00F041
:103B20006FF90446684600F0B3FE20463EBD000033
:103B30006135000070B504460D46102000F058F9BC
:103B4000002804D0032101700121021D32C270BD82
:103B5000002802D00178032902D0002001467047D6
:103B60008268C1681046704710B5242000F040F903
:103B7000040004D00E480068002802D004E00020B1
:103B800010BD002000F04AF8002020700120606085
:103B900020460830FFF79AFE002803D0204600F0A8
:103BA0001FF9ECE70020E0612062204610BD000014
:103BB0004403002010B5002904D0002802D0027868
:103BC000002A01D0002010BD0830FFF75FFE10BDB5
:103BD00010B5002802D00178002901D0002010BDC6
:103BE0000830FFF797FE10BD10B5002801D0FFF791
:103BF00097FE10BD10B5002808D00278002A05D124
:103C0000002903D00830FFF78DFE10BD002010BD45
:103C100010B5002801D0FFF78EFE10BD38B5084C56
:103C2000216800290AD1002807D1684600F0BAFDB2
:103C30000098002801D101200090206038BD0000CC
:103C40004403002070B5154606460C000ED0084609
:103C5000FCF761FB0146204600F04EFF002805D02E
:103C60002A462146304600F007F870BD2846FFF787
:103C7000E7FE0020C04370BD70B50E4D140007D0A4
:103C8000002912D0002810D00278002A0DD101E0BE
:103C9000284670BDA04208D0C269531CC3612346A8
:103CA0000830FFF74BFE0028F3D02046FFF7C8FE90
:103CB000EEE70000FFFFFFFF002802D00178002997
:103CC00001D00020704780687047002802D001783A
:103CD000042902D00020014670478268C16810465E
:103CE000704710B5040006D0FCF715FB01462046CE
:103CF00000F015F810BD002010BD002802D001789A
:103D0000022901D000207047C0687047002802D007
:103D10000178022901D0002070478068704770B593
:103D20000D46040009D000F0E7FE002805D000226F
:103D30002946204600F0CBFD70BD002070BD00007C
:103D4000FEB5074608980C46002800D111200193C3
:103D50000092034620A23846FEF70EFC0026F643EA
:103D6000002811DB0546A0420ED22E213846FCF772
:103D7000C8FA002812D165213846FCF7C2FA00289B
:103D80000CD1E81CA04201D33046FEBD2E20785550
:103D900030217819417000218170AD1C65213846B1
:103DA000FCF7AFFA002814D0461C841C40782D285C
:103DB00002D1761C00E0641C20783028FBD0B4428D
:103DC00007D0E01B2A1A21463046FCF754FAA01B04
:103DD0002D1A2846FEBD0000252E2A67000000008F
:103DE000002802D001494968084770473C03002079
:103DF000002802D001490968084770473C030020A9
:103E000010B50446FCF787FA0146204600F001F899
:103E100010BD70B506460C46481CFFF7E9FF0500CB
:103E200007D022463146FCF726FA002028552846BE
:103E300070BD002070BD486002680A600268516071
:103E400001607047FDF7B4F9FCF7FAFDFEF7CEF913
:103E5000FEF71EF9FEF7A8F8FDF7FAFF6120FEF75E
:103E6000C1FA0BA0FEF778FB0C490DA0FEF774FB1E
:103E70000A490EA0FDF7F0FBFDF7C6FE7D20C0004D
:103E8000FDF79AF8FDF7B6FEFFF7D4FBFEE700005A
:103E9000BFAACABC2E2E2E0D0A000000A9000020C9
:103EA0007765656B3A25730A00000000636F7572D1
:103EB00073655F7461626C652E7765656B312E7416
:103EC00078740000F0B50B30C108C900144F00260B
:103ED000144A0FE003688B420BD38B4205D95C1A5E
:103EE0004318456830C3083B00E04368136002C0D4
:103EF00004E0021D10680028ECD13046002803D1F0
:103F00003868002801D00020F0BD064A064810603D
:103F1000064A121AD208D20044C001203860D7E7FE
:103F20004C030020480300203C320020383A002097
:103F300010B549684068FCF7F5F910BD00680968DC
:103F4000884202D20020C0437047884201D001203D
:103F50007047002070470000F8B52EA0FEF728F942
:103F60000026314F51E0B0010024801BC51902E04A
:103F7000FEF710F9641C285D0028F9D12BA0FEF78C
:103F80006DF82BA0FEF714F929A0FEF711F928A06F
:103F9000FEF70EF926A0FEF70BF925A0FEF708F9AB
:103FA0002846FCF70FFE22A0FEF702F920A0FEF73C
:103FB000FFF81FA0FEF7FCF81DA0FEF7F9F81CA003
:103FC000FEF7F6F81CA0FEF749F819A0FEF7F0F886
:103FD00017A0FEF7EDF816A0FEF7EAF814A0FEF71A
:103FE000E7F813A0FEF7E4F83A20FEF7D3F8002430
:103FF00028192030807CFEF7CDF8641C0D2CF7DBEF
:104000000A20FEF7C7F8761CF6B20C480078864204
:10401000A9D3F8BDBFAACABCB4F2D3A1B5B1CCEC48
:10402000BFCEB1ED0A000000B50500203833000016
:10403000313131313131310039300000040000209C
:10404000F8B513A0FEF7B4F80025154F1BE0A80142
:104050000024401BC61902E0FEF79CF8641C305D8A
:104060000028F9D13A20FEF795F8002430192030C5
:10407000807CFEF78FF8641C0D2CF7DB0A20FEF71E
:1040800089F86D1CEDB2074800788542DFD3F8BD92
:10409000BFAACABCB4F2D3A1BFCEB1ED0D0A0000D5
:1040A000FC03002024000020F8B51A4D0F46EE68EE
:1040B00004462868001D00F05EFD601C15D1002F2D
:1040C00013D015492A684868906082682B68DA60C6
:1040D0002A688368121D5A602A68121D8260286847
:1040E00041610868401C0860F8BD286834194460C4
:1040F0002968B44204D2E86B091D00F06DFDF8BDDB
:10410000A86B091D00F068FDA86A8442F7D2AC6272
:10411000F8BD0000E8020020FC310020F8B504469C
:1041200000F07EFD304EB068401CB06030682F4F0C
:10413000002803D07069002827D02CE03460B068D4
:10414000012828D1002514206843C01900F036FD4D
:104150006D1C052DF7D32548643000F02FFD234852
:10416000783000F02BFD21488C3000F027FD1F48EF
:10417000A03000F023FD1D48B43000F01FFD1B48A7
:104180006430B0631430F06305E03068E16AC06AFF
:10419000884200D83460706A401C7062E063E06A54
:1041A0003169884200D9306114214843C019406800
:1041B000A0608168E1608268211D51608160E06AD1
:1041C00014214843C11961613958491C395000F024
:1041D00033FD7069002806D03068E16AC06A884201
:1041E00001D200F06FFDF8BDE80200204831002048
:1041F00010B500F015FD0E4C2068002815D10D48B3
:1042000000F0DCFC0B48143000F0D8FC0948E060FA
:104210001430206100220C21052000F0D3FE206024
:10422000002802D004A100F059FD00F005FD10BDEA
:104230002803002010320020546D7251000000004D
:1042400010B5026C0C46002A0CD0C1688B18C360F4
:1042500081688B4201D2194601E00168C1602046A5
:10426000FCF709F810BD10B50446006B00F0F2FC35
:10427000204600F0EFFC10BD01210D484903420724
:1042800005D0C01DC0080A4AC000821A891A094B0D
:104290000022411805C30839C908C9001C3B196030
:1042A0004A600A600A1A06C09A605A6070470000A5
:1042B00006110020E00200200F4E104D3746A03FAF
:1042C00011E000F0ADFCF068C468201D00F053FC64
:1042D000A868401EA8606868401E686000F0ACFCDA
:1042E0002046FFF7C0FF68680028EAD13868012837
:1042F000F9D900F0E7FCF6E7E8310020E8020020F9
:10430000FFB581B00D4691000C9C0F460A9EA52278
:10431000206BFBF7D0FF206B3F1FC019C708FF00C1
:10432000780701D072B6FEE7002D0DD000202218CC
:10433000295C20321175295C002902D0401C052817
:10434000F5D3002138200155052E01D372B6FEE7C2
:10435000E662201D666400F03CFC2046183000F048
:1043600038FC24610520801B6462A0613846049AF1
:10437000019900F007FA20600B98002800D0046033
:1043800005B0F0BD30B5114900E011460A6882421F
:10439000FBD34B685C18844203D14068181848600E
:1043A000084643681C18944209D1084C143C246800
:1043B000A24209D052689A1842600A6812680260E4
:1043C000814200D0086030BD0460F9E7E0020020BF
:1043D00070B5002441600B4D0061914206D8D11A9E
:1043E0008269914206D2011D286907E09A4203D2F0
:1043F000994201D3012403E0011DE86800F0ECFBC1
:10440000204670BD2803002010B5044600F008FCCB
:10441000A06B002804D0002400F00EFC204610BD44
:104420000124F9E770B506460C480D46C068C0681F
:10443000C468201D00F09FFB21462031087A420706
:1044400005D52A463146204600F0A8F802E040088B
:1044500040000872216A2046884770BD280300206A
:10446000F0B585B001265DE0009800285ADB029C7B
:104470006069002802D0201D00F07DFB03A800F039
:10448000B1F8054600980300FEF7B7F80A4C060697
:10449000282E400606282E4C20462030017A07465A
:1044A000314301720198A169034641182A4620460A
:1044B000FFF78EFF002835D0387A410707D50198DD
:1044C000A1692A464118204600F068F802E0400839
:1044D00040003872216A2046884723E02034207A41
:1044E0004008400020721DE020462030017A314310
:1044F00001720198A061002806D041192B461A4686
:104500002046FFF765FF0DE072B6FEE72146203139
:10451000087A820703D4204600F09CFB02E04008A2
:1045200040000872044800226946006800F0B6FDA9
:10453000002899D105B0F0BD28030020F8B50D463C
:10454000064600F0D7FC684600F04CF80446009898
:10455000002802D000F086FFF8BD0F48002D10D0D3
:1045600001690968002915D00025311B2A46006819
:1045700000F0D6FB00F076FF0028EDD100F0A2FBA2
:10458000F8BDA642F1D800F06DFF21463046FFF796
:1045900049FFF8BD0125E8E72803002070B516465D
:1045A0000C46054604E0A869296A0419284688478C
:1045B000A8692346011932462846FFF709FF00285B
:1045C000F1D170BD0648816B0968002904D0816B68
:1045D000C9680968816270470021C943FAE7000091
:1045E000E8020020F8B5064600F044FE0D4D0446F2
:1045F000A868844213D20027FF4304E0C06839460C
:104600000068FFF70FFFE86801680029F6D1296903
:10461000E9602861012030602046AC60F8BD0020D0
:10462000F9E700002803002003480068401C72B628
:1046300000D0FEE7FEE70000C8020020094CE06859
:104640000168002908D00021002907D00020FFF7C9
:1046500075FFFFF705FFF2E70121F5E7C068006885
:10466000F5E7000028030020F8B5044600F0D8FA6A
:104670002646403605257557274624370BE0606AE5
:1046800000280AD0384600F089FE002801D000F04A
:10469000C9FB6D1E6DB2002DF1DC0027FF43777161
:1046A00000F0CAFA00F0BCFA042575572046103015
:1046B00000900BE0206900280AD0009800F06EFE00
:1046C000002801D000F0AEFB6D1E6DB2002DF1DCB4
:1046D000377100F0B1FAF8BD70B50446002500F05E
:1046E00009FC274E3068002801D1FFF7C5FD002CDA
:1046F0003ED06007400F1021081AC1438C4237D8C2
:10470000211835D4002933D07068814230D81C4A32
:1047100014321046046801E022460446606888426C
:1047200002D220680028F7D13068844220D0156872
:104730002068106060680835421A102A08D960188D
:10474000430701D072B6FEE742606160FFF71AFED0
:1047500061687068401A7060B268904200D2B060C0
:104760000120C0070143002003C4F068401CF06032
:1047700000F078FE680701D072B6FEE7284670BDEB
:10478000CC02002010B50124031F24061C601B1F4F
:104790001960191F024B0B60143940380A6010BDB4
:1047A00029460000002070471CB500F039FA124974
:1047B0000320019100900023802210A1114800F0F5
:1047C0001FFD0D480424001D0190002322020EA1AC
:1047D00000940F4800F014FD0748002308300190B2
:1047E000A2010CA100940D4800F00AFD002000F089
:1047F000D1FA00F021FA1CBD180000207461736B1F
:10480000310000000D4900007461736B320000003C
:10481000494900007461736B33000000A94900002E
:10482000F7B504468168406816460A1AB2421BD89A
:10483000164A914227D8B21C25D85242904222D81B
:104840004D00711C4018854200D805462846FFF7E8
:10485000CFFA070017D006CC083CFBF70CFD206808
:10486000FFF7BEFA2760A56003CC32464018083C2B
:104870000199FBF700FD60688019606022680021E3
:1048800011540846FEBD0020C043FEBDFFFFFF7F60
:1048900010B504460068002801D0FFF7A1FA0020F7
:1048A000A0606060206010BD70B504460025102037
:1048B0006560A060FFF79CFA2060002802D00570B8
:1048C000002070BD0020C04370BD0068704770B507
:1048D00015460E46002811D0002D01D0044603E0F5
:1048E000FFF797FA040009D01020FFF781FA00289B
:1048F00005D0022101700121021D52C270BD002DA0
:1049000002D12046FFF76CFA002070BDAF24A4004E
:1049100004A0FDF721FEFCF777FF204600F022FA05
:10492000F6E700000A7461736B31D4CBD0D02E2E21
:104930002E2E2E2E2E2E2E2E2E2E2E2E2E2E2E2E97
:104940002E2E2E0D0A000000FF24F53406A0FDF7E0
:1049500003FE00F04FF80D490DA0FCF77DFE204648
:1049600000F000FAF2E700000A7461736B32D4CBF6
:10497000D0D02E2E2E2E2E2E2E2E2E2E2E2E2E2E13
:104980002E2E2E2E2E2E2E0D0A000000A900002005
:10499000636F757273655F7461626C652E776565B0
:1049A0006B312E7478740000084CFF25F53508A093
:1049B000FDF7D2FDFEF7CEFA01E0FCF76FF92178A2
:1049C0000029FAD1284600F0CDF9F0E701000020D7
:1049D0000A7461736B33D4CBD0D02E2E2E2E2E2E94
:1049E0002E2E2E2E2E2E2E2E2E2E2E2E2E2E2E0D08
:1049F0000A00000010B50E4C1820217801290BD0B8
:104A0000642000F0AFF920460B30FDF774FD7D20E7
:104A1000C00000F0A7F910BD0146FDF743F864207F
:104A200000F0A0F9FCF7E4FA0020207010BD0000AF
:104A300026000020802801D20120704701468039DD
:104A40003F2913D9C02811D0C1280FD042391D29C0
:104A500001D8022070470146E0390F2901D8032010
:104A60007047F038042801D80420704700207047B0
:104A700070B50378022904D0032905D0042906D093
:104A80002EE0DB06DB0E04E01B071B0F01E05B07DB
:104A90005B0F0124055D2E46803E402E20D2AD06E0
:104AA0009B01AD0E5B19641C8C42F3D3104883420A
:104AB00016DC1B20C0020F4C181AA04210D9022984
:104AC00004D0032905D0042906D00BE0802B07DB96
:104AD00008E00120C00201E001200004834201DA65
:104AE000002070BD002A00D01360012070BD0000BE
:104AF000FFFF1000FF070000F0B50E460746002438
:104B000015E0385DFFF796FF050004D0012D0DD9A3
:104B1000301BA84201D20020F0BD381900222946DE
:104B2000FFF7A6FF0028F7D06419641E641CB44286
:104B3000E7D30120F0BD78B516460A00054617D028
:104B40002878FFF777FF040013D0012C09D0944296
:104B50000FD801466A462846FFF78AFF002808D08A
:104B600001E028780090002E01D0009830602819CC
:104B700078BD002078BD4368826801699A608368C7
:104B800042685A604A68824201D182684A600022C3
:104B900002610868401E08600868704772B602A08B
:104BA000FDF7DAFCFEE700000A537461636B206FC7
:104BB000766572666C6F77210A0000000146083145
:104BC00000224160D243C160826001610021016026
:104BD000704700210161704730B50C68621C02D03B
:104BE0000246083202E0026904E01A4653681D6872
:104BF000A542FAD953684B6099608A605160086198
:104C00000168491C016030BD42684A6093688B604E
:104C100093685960916008610168491C01607047A0
:104C200072B604480168491CBFF34F8FBFF36F8F02
:104C300001607047C802002005490868002804D0B8
:104C4000401E086000D162B6704772B6FEE70000F1
:104C5000C802002070B500281DD00446083C6068DA
:104C6000002801DB72B6FEE72168002901D072B688
:104C7000FEE740004008606000F03CF9064D6068C7
:104C80006968401868602046FFF77CFB2869401C73
:104C9000286100F0E7FB70BDCC02002010B5074C86
:104CA00000202061A06106487D21C9000068FBF753
:104CB0007BFA401E60610720206110BD00E000E02B
:104CC0000C0000200120044900074860BFF34F8F0B
:104CD000BFF36F8F7047000000ED00E0F0B50023D8
:104CE00000280BD0002918D00C4F0022D500EC1959
:104CF0006668864204D1D200D3190AE072B6FEE794
:104D0000002B03D17D59002D00D12346521C082AC7
:104D1000ECD3002B01D019605860F0BD08310020A1
:104D200070B515460E460446FFF77AFF2046403020
:104D3000042282560021521C00D1017105228256A4
:104D4000521C00D14171FFF777FFA06B002805D1FD
:104D500020462A463146243000F07CF82046FFF7F2
:104D600083FC70BD10B502000FD00948406B0028CD
:104D700001D072B6FEE700F0BDF800211046FFF743
:104D800093F900F06FFB002801D1FFF79BFF10BDE6
:104D9000E802002070B50446FFF742FF1B4D002CCF
:104DA00000D12C68201DFFF7E6FEA06A002803D082
:104DB00020461830FFF7DFFE686A401C68622868EA
:104DC000844207D1211D1248FFF71EFF6868401C6E
:104DD000686004E0A868401EA860FFF7F3FBFFF7D7
:104DE0002BFF2868844202D02046FFF73CFA68690E
:104DF000002809D02868844206D1686B002801D0B9
:104E000072B6FEE7FFF75EFF70BD0000E80200200B
:104E1000E831002002490A6A0260C96841607047AF
:104E2000E802002001490120C8617047E802002023
:104E300010B50C46002809D0054909681831FFF75C
:104E4000CBFE01212046FFF72FF910BD72B6FEE719
:104E5000E802002070B50C4600281BD00E4B4168BC
:104E60001D68E9618D681E6835621D688E68183599
:104E700075601D6818358D60196888620168491C65
:104E80000160002A01D00024E44311462046FFF7C8
:104E90000BF970BD72B6FEE7E80200207CB5114840
:104EA000002501902B463C220FA10095104800F0F0
:104EB000A7F90C4C2C3C012803D100F053FB01282E
:104EC00002D0401C0BD008E072B60020C043A062A4
:104ED00001206061E56000F04BF8206B7CBD72B68C
:104EE000FEE700001403002049444C450000000088
:104EF000B94200000248416B491C41637047000001
:104F0000E802002010B5184C606B002802D0012088
:104F1000E06110BD0020E061206821680068096B35
:104F2000884204D8216820683431FFF737FE2069B1
:104F30000E4902E0002815D0401E142242438A5830
:104F4000002AF7D01422424351184A680B4652688F
:104F500008334A609A4201D152684A60D1682160A0
:104F6000206110BD72B6FEE7E80200204831002043
:104F700010B50948016AFF22120411430162016A57
:104F8000120211430162FFF789FE04490020086004
:104F9000FBF7CEF8002010BD00ED00E0C8020020B5
:104FA00010B5FBF7D9F8044600F06AF9002803D0E1
:104FB00001200349000748602046FBF7D1F810BDE7
:104FC00000ED00E0F8B517460E46050021D0014679
:104FD0000020C043FBF7E8F8B0421AD328467043DC
:104FE0005121C84215D85030FFF776FB04000CD091
:104FF00020465030002E0AD0206026642046012131
:10500000E56300F008F84C2007552046F8BD246001
:10501000F3E772B6FEE7F8B501250E460446002810
:105020002ED0E16B002937D0AF1E3846FBF7BCF815
:105030000146206C81422FD3FFF7F2FD216CE06B1B
:10504000484321684118A1600021A1632168616083
:10505000E06B216C401E48432168411820464030D7
:10506000E160077147713038002E0BD0FFF7A6FDC5
:1050700020462430FFF7A2FDFFF7DEFD2846F8BDED
:1050800072B6FEE721690029F6D000F087F9002802
:10509000F2D0FFF717FEEFE772B6FEE7F7B500258F
:1050A00082B00446002803D00398002802D006E00E
:1050B00072B6FEE7206C002801D072B6FEE700F061
:1050C000C9F80026002804D10498002801D072B63F
:1050D000FEE7FFF7A5FDA76B002F15D0204603992B
:1050E000FFF7AEF87F1EA7632069002807D020468F
:1050F000103000F053F9002801D0FFF7E3FDFFF76F
:105100009BFD012005B0F0BD0498002802D0002DC1
:1051100003D006E0FFF790FD27E06846FFF77AFE30
:105120000125FFF789FDFFF7E5FEFFF779FD204632
:10513000403004214156491C00D1067105214156D9
:10514000491C00D14671FFF777FD04A9684600F0BD
:1051500027F8002820460AD0FFF786FA00F082F9E7
:105160002046FFF751F90028B3D00020CAE7FFF727
:105170004BF900280ED0204624300499FFF758FE42
:105180002046FFF771FA00F06DF90028A1D1FFF772
:1051900099FD9EE72046FFF767FA00F063F998E76C
:1051A000F8B50C46050014D0002C14D0FFF738FDDC
:1051B000124EF1686B682068CA1A471C0DD02F6820
:1051C000366AB7420BD08B4209D8012500202060F7
:1051D00010E072B6FEE772B6FEE700250AE09042E4
:1051E00005D9801A20602846FFF714FEF5E7002055
:1051F00001252060FFF720FD2846F8BDE8020020C9
:10520000FFB585B0164690000F9FFFF765FA0500C1
:105210001DD05420FFF760FA040015D05421FBF78D
:1052200051F8256300210E98039101970090029494
:105230003246089B06990598FFF762F82046FEF76C
:105240006DFF012009B0F0BD2846FFF703FD0020E7
:10525000C043F7E706484169002904D0406B0028A5
:1052600003D00020704701207047022070470000E3
:10527000E80200200148C06870470000E8020020F2
:10528000F8B5444E0025706B002804D0B069401C6E
:10529000B0612846F8BDF468641CF4600ED1B06BB0
:1052A0000068002801D072B6FEE7B06BF16BB16305
:1052B000F063306A401C3062FFF784F93548806A39
:1052C000844211D33348816B0968002908D0806B70
:1052D000C068C1684868844215D22E49886203E0DC
:1052E00000212C48C94381622A4801681422C96AF6
:1052F0005143294A5158012900D90125C069002884
:10530000C7D00125C5E78B68CA6848699A60CB6831
:105310008A685A6042680B1D9A4201D1CA6842608D
:1053200000264E610268521E02608A6A002A10D06E
:10533000C8690F6A87600F6AC86978600F4650684D
:105340001837B84201D1086A50608E621068401E5A
:105350001060104EC86A3269904200D93061142240
:1053600050430D4A8018406888608768CF6087681E
:105370007B608360C86A1423584383184B611358B9
:105380005B1C1350C86A3168C96A88429AD90125E2
:1053900098E70000E80200204831002030B5C068DE
:1053A000C06800282AD0C369026A816A9A60036AC9
:1053B000C2695A6002464B681832934201D1036AAF
:1053C0004B60002484620B685B1E0B60234B596B9F
:1053D000002915D0224C6168C1618D6805628D6815
:1053E0006A608A6084622168491C2160C06A196809
:1053F000C96A88422FD90120D86130BD72B6FEE754
:105400008568C2684169AA60C56882686A604D683B
:10541000021D954201D1C5684D6044610C68641E4F
:105420000C60C16A1C69A14200D91961142461434E
:105430000B4C8C3C0919496881608D68C5608D688A
:105440006A608A60C16A142251430A194261625833
:10545000521C6250CAE7002030BD0000E802002064
:10546000D4310020F8B500243C4D0094686B00282E
:1054700008D0FFF7D5FB686B401E6863686B002897
:1054800002D066E072B6FEE7A86800270126002871
:1054900044D15EE0C068C468E269216AA06A916094
:1054A000226AE16951602146426818318A4201D17D
:1054B000216A4160A76201683A46491E0160A368FB
:1054C000E16860699960E368A16859604368211DDB
:1054D0008B4201D1E368436062610268521E026040
:1054E000E06A2A69904200D92861142250431C4A7C
:1054F00080184068A0608368E360836859608160B9
:10550000E06A14214843811861611158491C115007
:10551000E06A2968C96A884200D3EE6110488C307D
:1055200001680029B6D1002C01D0FFF74BF8AC6917
:10553000002C07D0FFF7A4FE002800D0EE61641E07
:10554000F8D1AF61E869002803D001200090FFF78F
:10555000B9FBFFF771FB0098F8BD0000E8020020DE
:10556000483100201CB5FEF743FE0A4800680028B9
:105570000CD008490220091D0191009000235022FF
:1055800005A10748FFF73CFE002801D172B6FEE7EF
:105590001CBD000028030020546D72205376630068
:1055A0003D460000202020202020202020202020F8
:1055B00020202020202020202020202020202020EB
:1055C0002020202000000000E855000000000020FE
:1055D00050030000E80900000457000050030020B9
:1055E000E83A000024260000D104216CDC020014FB
:1055F00051636F6E6669672C6765742C6C62736C9F
:105600006F630D0A59641A736455736D732C04111A
:105610004D6F6E900C313338323636383332383580
:1056200018136536383839316539383138376535CA
:1056300038386230061B646212181D3939613965C9
:105640003462613836656662633863653562666107
:1056500062653639646135061A353659063942397C
:1056600024011669343B386506091D2E0136195888
:10567000180E32613865373961383465356164BC7C
:1056800019061A39CE180B6237623265386236381D
:1056900035DA1C376261181B65381E1B3835300837
:1056A0000C203838633833653539626234942815F4
:1056B0007B226964223A22313233222C22766572AF
:1056C00073696F6E101B2E3010280E706172616D41
:1056D00073223A7B226B657907000F2876616C751F
:1056E00065223A747275657D7D7D0933640D2A6685
:1056F000616C7365211AAA01014C02230423C53E83
:04570000E3E13500AC
:04000005000000C136
:00000001FF
